:100000000C94AD160C94701A0C94491A0C94D516D5
:100010000C94D5160C94D5160C94D5160C94D516B4
:100020000C94D5160C94D5160C94D5160C94D516A4
:100030000C94D5160C94D5160C94D5160C94D51694
:100040000C94FF190C94D5160C9493180C946D18FD
:100050000C94D5160C94D5160C94D5160C94D51674
:100060000C94971A0C94D51600407A10F35A00A0FD
:10007000724E18090010A5D4E80000E87648170071
:1000800000E40B54020000CA9A3B000000E1F505B1
:10009000000080969800000040420F000000A086FB
:1000A00001000000102700000000E803000000002D
:1000B0006400000000000A000000000001000000D1
:1000C00000002C76D888DC674F0823DFC1DFAE59EB
:1000D000E1B1B796E5E3E453C63AE651997696E87E
:1000E000E6C28426EB898C9B62ED407C6FFCEFBC02
:1000F0009C9F40F2BAA56FA5F490055A2AF75C932D
:100100006B6CF9676DC11BFCE0E40D47FEF520E662
:10011000B500D0ED902E0300943577050080841E45
:10012000080000204E0A000000C80C333333330FA0
:10013000986E12831141EF8D2114893BE65516CF3D
:10014000FEE6DB18D1844B381BF77C1D901DA4BB49
:10015000E424203284725E228100C9F124ECA1E5FE
:100160003D27010402000302048A050506C30B2093
:1001700019421E2C25802E882F2D370038003C8FE9
:100180003D106F20001F1C1F1E1F1E1F1F1E1F1E45
:100190001F00000008000201000003040700000027
:1001A000000000000054696D653A006D6178006DD3
:1001B000696E0000FE03555503FE001E635CDDDD25
:1001C0005C631E00FE03555503FE001E635CDFDF0B
:1001D0005C631E00FE03D5D503FE001E635CDFDFFB
:1001E0005C631E00FE03F5F503FE001E635CDFDFAB
:1001F0005C631E0EF301FDFD01F30E1E635CDFDF89
:100200005C631EC0603018080C92A2E2C458600003
:100210000000000103020202070D0808080D060095
:100220000000000020046090080A90600400400074
:1002300000000000000200000105000002000000B4
:100240000000002020046890080B906804404000E3
:100250000000000000020100010D0001020000008A
:1002600000000060600C6C900B0B906C0C606000E8
:1002700000000000000303000D0D00030300000058
:1002800000000060660E6C900B0B906C0E666000B8
:1002900000000000060703000D0D00030706000024
:1002A0000000006030DFEFF6FBFDFBF6ECD83060BD
:1002B00000000000000F0F0F0000000F0F0F0000E4
:1002C0000000001269BE01000200C003E307020043
:1002D0000018000000000000000000000000000006
:1002E000C00FFC011EFE001FFFF0FFFFF071E007D2
:1002F0007EF00E1CE0070E1FFE011FFE813FFF3F38
:10030000F0037E1C3FF003FEFF1F1F00000E0007DE
:1003100000001C001E8003E7070E00000000000024
:1003200000000000000000000000C03F0000BE61AF
:10033000C38F87E10773CE1A00001807CE870FB866
:100340007FFCFEF3E103000000E01FFF071EFEC379
:100350007FFFF3FFFFFC77E0077E780E1CE00FCEF7
:100360007FFEC77FFEC77FFF3FF0037E1C3FF00389
:10037000FEFF1F1F06001C000700001C001F80035B
:10038000E7070E00000000000000001C0000000055
:10039000000000E0760000BE61E3DF8F710E338C59
:1003A0000F0000D81FEFCF1FBC7FFEFFFBF307003D
:1003B0000000E09C070F3F8EE7718777C0011E7732
:1003C000E0077E3C0E3CF00FEEF10EEFF10EEFF188
:1003D00070387007771C77380707F8191C0F00383A
:1003E000000700001C00078003E7070E0000000064
:1003F000000000001C0000000000000070E600008B
:10040000BE6173DACC300C3B1C070000DCDD7FFCE6
:100410001CBE038E811F3F0F000000E0DC010C3387
:100420000EE7E00777C0010E7EE0077E1E0E3CF06F
:100430001FEEE00EEEE00EEEE070387007771CF76E
:100440003C8E03DC391C0F0000000700001C000775
:10045000800300070E00000000000000001C0000E8
:10046000000000000070E600009EFC7FC24C700699
:1004700019980D0000ECF87FFC18BF0307C01D1F82
:10048000FE03000000CEB81D330EF7E0077EC0016A
:100490000F7EE0077E0F0E7CF83FFEE00FFEE00FC0
:1004A000EE0170387006E39CC30C8E03CE319C19AC
:1004B00000001FF7E0E11DCF9FF77BE7E77ECFBB92
:1004C00087C73DBCDFFCFEE3C78FE3C78FFF73E642
:1004D00000000EFC7FC26FE0031CB8080300EC387C
:1004E0000E1C1CBB3F77E01C1FFE03077000EFFCD7
:1004F00099738E7300077EC0010770E007FE070E38
:100500007CF8377EC00F7EC00FCF0F7038708EE33F
:100510009CC30FDC01CE31DC3900803FFFF9F7DFEF
:10052000DFDFFFFFE777FEFFFFEFDF7FFEFFFEFF6E
:10053000E3C78FE3C78FFF73E600000EB0E1833798
:10054000C0311C38000300EC380E0E8FBB7FFFE07B
:10055000F81BFEC3FFFF0167CC9873FE730007FE14
:10056000DF7F07F0FF07FE030E7CF8777EC00F7F6A
:10057000C0FF873F7038708EE39C8307DC01C73172
:10058000DC30008071CF3977DE39C7F9E7E73FFE0D
:100590003C7FEEDC73CEFFC79DE3C78FE3EE8E8317
:1005A00073E600000EB0C10F10F0331C3800031FBB
:1005B000EE388E0F9FB9F3CF71F0390FF0F9CF8776
:1005C00063C69861FE770007FEDF7FC7FFFF07FE67
:1005D000070EDCEC677EC0FF77C0FF037E703870CB
:1005E000DCE1B6C30FF880C371FC70000078871F90
:1005F00038FC30E7F0E3E71F7E1C3F7EF8E1871F01
:10060000079CE3EE9C737CDCC139C6790606B00119
:100610001FD83B3F1C38E01F1FE638CE07FC39E0EF
:100620008771B8F30F7800008F6366D8E10E7F0002
:10063000077EC001C77FE0077E0F0EDCECE77EC0BF
:10064000FF71C00F07F0703870DCC1B6C10C70C00C
:10065000C1611C0000007F871F38FC3FE7F0E3E723
:100660001F7E1C3F7EF8E1871FFF9CE3EEDC77389E
:10067000DCE11C86FF0706FE0739EC1F1E1C38E074
:100680001F1FE638EE01F87FE087391CE70E1CF8E3
:100690000F9C6366CCFF0EFEE0077EC0010F7EE07C
:1006A0003F7E1E0EDCECC7FEE00FF0EC0FEEE070BC
:1006B0003870D8C0B6E11C70C0C1611C00008077E2
:1006C000871F38FC3FE7F0E3E73F7E1C3F7EF8E101
:1006D000871FFC9DE3EEDC767CDC7138C6CD030021
:1006E000FE7739641E1C1C38000300E738EEE0F882
:1006F000FFE387391C070E78F80F0F6066CCFF0EFA
:10070000EEE00777C0010E7EE03F7E3C0E9CE7875F
:10071000EFE00EE0FC0EEEE0703870F8C0F77138D4
:1007200070E0C0E11C0000C071871F38FC00E7F0DA
:10073000E3E7777E1C3F7EF8E1871FC09DE37CF8EE
:100740003EEEF83870E600000ED87039663E3E1C6A
:100750003800E3E0C31D7EE03CB8F3CF1D1C1FF75B
:10076000F301C087E3FEE7C00FEF718777C0011E7A
:100770007FE07F7F780E9CE787EFF10EE0F90EEEC9
:10078000F1707038F880E370387070C0C11C0000E0
:10079000C079CF3977DE39C7F9E3E7E77E1C3FEE52
:1007A000DC73CE1FC79DF37C783CEEF81C70E6002E
:1007B000000ED8E01FE3F7771C3800E3E0C31FFE0C
:1007C000DF1FB87FFE1CF8FBF7C307F081E3BCE333
:1007D000C0FFC77FFFF3FF01FC7FE0F777F0FE1F4C
:1007E000E307CF7F0EC07F0ECE7F70F03F7080E3B7
:1007F000387070F0FFC11C0000C077FFF9F7DF3FD1
:10080000C7FFE3E7E77F1C3FEEDF7FFE1FFFFCFF34
:1008100038701CC771FC73E600000ED8C00FC3E32C
:10082000E3181800E0E00307FE9F0F383F7C1CF040
:10083000F1F303077080C301E0C0FF011FFFF0FF69
:1008400001F87DE0E773E0FF1FE3070E1F0E00FFD6
:100850000E9E3F70C00F7080E3387070F0FFC11CB7
:10086000000080F7F7E0E11D0F87F7E3E7C77F1C83
:100870003F8EC73DBC1F7E78EF38701CC771FC737C
:10088000E6000000000001000000381C00C000006D
:1008900000000000000000000000000300000080D5
:1008A0000700000000000000000000000000000041
:1008B0000000000000000000C00000000000000078
:1008C000000000000000C0011C000000000000004B
:1008D0000000007000E00000000000C00180030084
:1008E000000000000000700070E600000000000141
:1008F000000000300C00600000000000000000005C
:10090000000000800100000000FF01000000000066
:1009100000000000000000000000000000000000D7
:10092000000000000000000000000000000000C007
:10093000011C000000000000000000C03900E000C1
:1009400000000000C0018003000000000000003033
:100950000070E6000000000000000000700E0020A3
:100960000000000000000000000000008000000007
:100970000000FC010000000000000000000000007A
:100980000000000000000000000000000000000067
:100990000000000000000000C0071F80FF010000F1
:1009A00000000000C03F00F80000000000C001800F
:1009B00003000000000000003C00E07600000000A2
:1009C0000000000000E00700000000000000000040
:1009D0000000000000000000000000000000000017
:1009E0000000000000000000000000000000000007
:1009F00000000000000000000000000000000000F7
:100A000000C0071F80FF01000000000000000F0071
:100A1000780000000000C00180030000000000001A
:100A2000001C00C03F0000205F00840155045509F0
:100A30004414441E652B4538553A45405446554D9F
:100A400065555558545D55604465546E7574547DB4
:100A50005486548F549854A154AA54B354BC65BFBF
:100A600065C255CB55D455DD55E555F55501560CA8
:100A700055185524562E5538654455505553545CD9
:100A8000456955725580558C559955A455B155BD3C
:100A900055C844D355DF44EC55FB44074414551E58
:100AA00045234428542D4437444144464550555A23
:100AB0005563556D5576447D55875590559353989C
:100AC00045A155A455B355BC55C655D055DA45E09A
:100AD00055E944EF55F84401441055195522552A5B
:100AE00045316533543A55432138565E3E3E003C0D
:100AF0003C006C2436FE2525FE36246C00000000E8
:100B00000000000C0605060605060C0000000000AB
:100B10000000626173654661696C005478466169E2
:100B20006C0050560055736564003620646179731B
:100B30002061676F003520646179732061676F0001
:100B40003420646179732061676F003320646179B8
:100B5000732061676F003220646179732061676F71
:100B60000059657374657264617900546F646179CA
:100B700000063020555747240200402777757777C5
:100B80000004312763736775545125236357555506
:100B90006761020201040421140200000002000047
:100BA00060320420754322422200403544154155ED
:100BB0004272425515151125547157551552555508
:100BC00024410524636662035072236363575555BD
:100BD000272207205027074277702025777747770D
:100BE000000124771335532734715753235275224C
:100BF000224200501575572534725555355275529D
:100C00003660010070160542220410254144454516
:100C100042720251151551255551573145527525CE
:100C20002144005015156225347255636152756276
:100C30002322002050570724050212277774477794
:100C4000200421576373617552572561357252250F
:100C50006764706063664225555225413172724562
:100C600067320000000000000000000000000000EB
:100C70000000000000000000000000000000000074
:100C800000000000000030000200004100000030C1
:100C9000000000205F0444486973746F7279000893
:100CA0004800420188C121A000000000801CC271E0
:100CB000988FF91C07000000701CE2718EEF73A280
:100CC0008F8B8228721EE771BE288AA2E8E3848394
:100CD000000820002080030202090C000000000030
:100CE000080000000080884000004251BC2910101C
:100CF000812000008022238A984088A288203030FA
:100D00008822258A92208822024A826D8AA2288A15
:100D100088288AA2082204420110200020400002F4
:100D2000000808000000000008000000004008A1C2
:100D3000020002F80A240008A222000040320282C7
:100D4000942780A288208CCF80BA280AA22008226B
:100D5000022A826A8AA2280A88288A14052108227F
:100D60000200EFF13CE7F11EC34988A5711EAFF107
:100D7000BE688BA2E8430801010002501C42000833
:100D8000C2F9800F402A026114E8411C0F000300E1
:100D900043BAE809A2E7C93E021A82AA8A9EE8710C
:100DA0008848A908822008020080280AA2488822D0
:100DB0000229886A8AA268088848A994082108023A
:100DC000000002F828A10208A2220000202682804A
:100DD0003E28422208008CCF209A2F0AA220882287
:100DE000222A82288B82A8808848A91442201002D7
:100DF0000080280AA24F88220219882A8AA2287015
:100E00008848A98888400801000000509E2C0110E5
:100E1000812008802022428890282222842030309D
:100E20000082288A92208822224A82288B8228895E
:100E30008888D8222220100200802C0AA240F022AA
:100E40000229882A8AA22880888CA8144F40080189
:100E50000000020008CC02A000000880101CE27311
:100E600038C7211C83200000209CE8718E2FF0A23F
:100E7000CF89BE287202277208878822E2E3A00386
:100E8000FC00EBF13C47802207499C28721E2F781A
:100E9000308B5022E8838800000000000000000032
:100EA000000004001000000000000000001000001E
:100EB00000000000000000000000000000000C0026
:100EC0000000000000002000000000000000700092
:100ED000E000000000020800000000000700000021
:100EE00000205F064420AFFEE30100000C0000007C
:100EF00000F8001EFC0000000000000003000000DD
:100F000000000000000000000000000000000000E1
:100F1000000000000000C01F00C01F00801FE0FF95
:100F200007807FE0FF03FCFFF7FF0FF00F7C00FF5F
:100F300003F03FC0EF03E00FE0FF017CC07FC0FF84
:100F40000780FF80FF3F007FE0FFFF1FC0FF00FC26
:100F50000FFCC0FF037C3FC0FFFFFF7FC03F0000CE
:100F600000C001003C00000000E00100C007007864
:100F7000003CFF00780000000000000000000000BE
:100F80000000000000000000000000000000000061
:100F900000E0FF030000FEE381C7010C0000000039
:100FA000FE031EFE01060000000000C31F00803F7C
:100FB000803F00F8E0FF811FFEFFC11F800F00008F
:100FC0000000000000F07F00F8FF00801FE0FF1F1E
:100FD000E0FFE1FF1FFCFFF7FF0FFC3F7C00FF037A
:100FE000F03FC0EF03E00FE0FF037CF0FFC1FF1F05
:100FF000E0FF83FFFFC0FFE1FFFF1FC0FF00FC0F0A
:10100000FCC0EF077E3FC0F7FFFF7FC03F0000003E
:10101000C003003C00000000E00100E00700780091
:101020003CFF00780000000000000000000000000D
:1010300000000000000000000000000000000000B0
:10104000F0FF070000FEE381C7817F80036000FF9F
:10105000071ECF03060000000000E33F00E7FFE0AB
:10106000FF00F8E0FFE17FFEFFF17FE03F000000BE
:1010700000000000F8FF00FEFF01C03FE0FF3FF06E
:10108000FFE3FF3FFCFFF7FF0FFF7F7C00FF03F054
:101090003FE0E703E01FF0FF037CF8FFC3FF3FF0F2
:1010A000FF87FFFFE1FFE3FFFF1FC0F7013E0FFCDB
:1010B000C0E7073E7EE0F7FFFFFFC03F78000080FB
:1010C00003003C00000000E00100F0070078003C55
:1010D000FF00780000000000000000000000000099
:1010E000000000000000000000000000000000F808
:1010F000FF0F0000FEE381E3E1FFE10F7000FF0757
:101100001ECF43260000000000F37F80F7FFF1FFB1
:1011100001FCE0FFF1FFFEFFF9FFF07F000000009F
:10112000000000F8FF013FF007C03FE0FF3FF8FF7D
:10113000E7FF7FFCFFF7FF8FFFFF7C00FF03F03F1F
:10114000F0E303E01FF0FF077CFCFFC7FF7FF8FF21
:101150008FFFFFF1FFE7FFFF1FC0F7013E0FFCC04D
:10116000C70F3F7CE0F3FFFFC1003CFC000080079D
:10117000003C00000000E00100F0010078003CFFAE
:1011800000780000000000000000000000000000E7
:101190007800000000000000000000000000F89C43
:1011A0000F0000FEE381E3F1FFF31F30008F079E85
:1011B00087E7760000000080F9FFC0F7FFF3FF012A
:1011C000FEE0FFF1FFFFFFF9F8F8FF00000000006C
:1011D0000000FCF8810F800FC03FE0037EFCE1EFD0
:1011E00003FE7C00F001803FFC7D00FF03F03FF830
:1011F000E103E01FF0FF077CFEF1CF077EFCE39FD9
:101200000FF0F3E107F0011FC0F7013E0FFCC087AC
:101210000F1FFCF00300FFC1003CFC0000000700B2
:101220003C00000000E00100F00000780000F00049
:1012300078000000000000000000000000000078BE
:1012400000000000000000000000000000781C0FFB
:101250000000FEE3C1E3F9ED731C38808F079E8721
:10126000E77F0000000080F9F8F0FFF1FBE003FEEB
:10127000E000F8F001F07CF0F9F800000000000058
:10128000007CF0C303000FE07FE0037C7C80EF0371
:10129000F87C00F001C00FF07D00FF03F03FFCE0A0
:1012A00003E01FF0FF0F7C7EC0CF07FCFC809F0F88
:1012B000E0FB800FF0011FC0E7011E1FFEE1839FCE
:1012C0000FFCF00180FFC1013CFC00000000003C6D
:1012D00000000000E00100F00000780000F000785D
:1012E0000000000000000000000000000000780086
:1012F000000000000000000000000000781C0F004B
:1013000000FEE3C1E3F8CC3F3818808F079E03C787
:101310003F00000000807DF0FFFFE07FE003FFF072
:101320000078E001F83CE07DF001000000000000E2
:101330007CE0E301001EE07FE0037C3E80FF03F8D9
:101340007D00F001E007E07F00FF03F03F7EE00357
:10135000E03FF8FF0F7C3F80DF07F87E00BF0FE023
:101360007B800FF0011FC0E7031F1FFEE1039F0FEB
:10137000F8F001C0EFC1013CFE01000000003C009C
:10138000000000E00100F0000078003CFF00780061
:1013900000000000000000000000000000780000D5
:1013A0000000000000000000000000781C0F00009A
:1013B000BEC1C0E378CC3F381C009F07CC030F0FA1
:1013C00000000000C07DF0FFFFC07FC083F7F00089
:1013D0003C0000783CE03DE0010000000000003CE3
:1013E000E0E300003CE07FE0037C3E00FF03F07D93
:1013F00000F001E003E07F00FF03F03F3EE003E088
:101400003FF8FF1F7C1F00DF07F83E00BE0FE07BA8
:10141000000FF0011FC0E7031F1FFEE103DF07F805
:10142000F900E0E781013CFE010000807F3C3F8045
:101430001FE0E7C10FFE879F7F3C3CFFC0FFC783D3
:101440008FC707F883C707F0F987C11FFE3FE03F4A
:10145000E07FF0C1FFC0FFC0FFFF791C0F0000BE9E
:10146000C1FCFF7F8C3F380E00FF03CC038F1F00B1
:10147000000000C07CF0FF7FC07FC083F3F0003C21
:1014800000003C3CE03DE0FF0700000000003CE0C5
:10149000F380EF38F0F9E0037C3E00FF03F07F00BB
:1014A000F001F003007C00FF03F03F3FE003E03B6E
:1014B000B8FF3F7C1F00DF07F83F00FE0FE0FB0096
:1014C00000F0011FC0C7030F1EFEE103FE07F0F985
:1014D00000E0E381033CCF030000E0FFBDFFE07FBD
:1014E000F0EFF13FFEC7BF7FFF3CFFE0FBF7EFBF30
:1014F000F71FFE8FF70FFCFBE7F17FFE3FE03FE0B9
:101500007FF0C1FFE1FFC0FFFF791C0F00003E002C
:10151000FCFFFF0C38380E00FE03C003CF3FE00194
:101520000000C03CE0817FC007E0C3F3F03E3C1FF9
:10153000003E7CF03DE0FF070006000C0000F07369
:10154000E0FF38F0F9E0033E1F00E003E07F00F029
:1015500001F001007C00FF03F0BF1FE003E03BB897
:10156000FF3DFC0F00FE07F81F00FC0FF0F9030021
:10157000F0011FC0C7870F1ECEE101FE03F07F0000
:10158000F0E381033CCF030000F0FFFDFFF0FFF824
:10159000FFF97FFEE7FFFFFF3DFFF0F9FFFFBFFF11
:1015A0001FFF9FFF1FFEFFF7F9FFFE3FE07DF07971
:1015B000F0C1F3E1FBC0FBFF791C0F00003E00FC13
:1015C000FFFF0F701C0700FE01E001DE39E00100A3
:1015D00000C03CE08107E007F0C1F1F0FFBC7F00F4
:1015E0001EF8F83CE0FF07C007003C0000F839F0A7
:1015F000FC70F0F9E0FF1F1F00E003E0FFFFF3FFC6
:10160000F70100FCFFFF03F0FF0FE003E07BBCFFEE
:101610007DFC0F00FE07FC1F00FC0FF8F13F00F0FF
:10162000011FC0C7870F3ECFE301FC03E07F00F836
:10163000E101033C87030000F0E1FFFFF1FFFCFF45
:10164000FDFFF0F0FFFFFF3DFFF8F8FFFFFFFFBFDA
:10165000FFBFFF3FFFFFFF7DF8783CE07DF0F9F032
:10166000E1E3F3F1E0FBFF791C0F00001C00FCFF3D
:10167000F71FF01F0300FE00E0019E10E0010000D4
:10168000E03CE08107E003FEE0F1F0FFFDFF001F1A
:10169000F07F7CF0FF07F0FFFFFF0100FC39787856
:1016A00070F8F0E0FF1F1F00E003E0FFFFF3FFF71B
:1016B0000100FCFFFF03F0FF0FE003E07BBCFF79BC
:1016C000FC0F00FE077E1F00FCFFFFF0FF01F00192
:1016D0001FC08787073ECFF301FC01E03F00FCE01D
:1016E0000107BC87070000F8C0FFF0F9F07DF87D26
:1016F000F8F0F0E1FFE13FFF7CF81F7FFC1FBE0F19
:10170000BE1F3E1FFEFF3DF0793CE079F0F8F8E3A4
:10171000E3F3F0E103F8781C0F00001C00E071E037
:101720007FE08F0380FFF1E0011E00E00100006018
:101730003CE08107F0037EF0F0F0FFFDFF000FF0CA
:101740007FFCF8FF07FEFFFFFF0F00FE3C3C7070C0
:10175000F8F0E1FF3F1F00E003E0FFFFF3FFF701B8
:10176000FFFFFFFF03F0FF1FE003E07BBCFFF9FC7E
:101770000F00FEFF7F1F00FCFF7FE0FF07F0011F4F
:10178000C08787073CCFF301F801C03F00FCE001B0
:1017900007BC87070000F8C07FE07BF03FF03FF018
:1017A000F1F8C0FFC03FFF3EF80F3EF80FFC07FC0A
:1017B0000FFC0FFC1F3CF0793CE079F0F0F8E3C13E
:1017C000FFF0E1017C781C0F00001C00E07080FF3E
:1017D0008183C1C1FFF1E0011E00E001F01F603C08
:1017E000E08107F801FE71F0F0F0FFF8810FF8FFDB
:1017F000F8FF0180FFFBFFFB3F007E1C1C7070F8B0
:10180000F0E1FF7F1F00E003E0FFFFF3FFF701FFC0
:10181000FFFFFF03F0FF1FE003E0739CFFF1FC0FED
:1018200000FEFF3F1F00FCFF7F00FF0FF0011FC005
:101830008787073CCFF300FC01C01F007EE0010654
:10184000BC030F000000F83FE03FE01FE01FF0F195
:10185000F8C0FFC03FFF1FF8071EF807FC07FC0F8A
:10186000FC07F80F7C00783CE0F9F8F0F8E3817FA2
:10187000E0E1017E781C0F00001C00E07000FC031A
:10188000C0F1C7E773E0011E00E001F01F603CE01B
:101890008107FC00F07BF000E07FF081077CF0F92D
:1018A000FF01F0FFF8FFE3FF011F1C1E70707CE0DA
:1018B000E1037C1F00E003E07F00F001F001FF7F07
:1018C00000FF03F0FF3FE003E0F39EFFF1FD0F0098
:1018D000FEFF0F1F00FCFFFF00F00FF0011FC0070D
:1018E000CF033C87F300FC03C01F003FE00106FC70
:1018F000030F000080FF3FC03F001EE0FFFFF178B4
:10190000807FC03FFF3FF8071EF807FC03F807F889
:1019100007F80FFC07783CE0F178F0B8E3013FE00E
:10192000F3013F7C1C1F07001C00E07800FC07C08F
:10193000F8EFE37FE0011E80FF7FF01F303CE08185
:10194000077F00E03FF000E03FE0C1073EE0F3EF3B
:1019500001F81F000000FF030F1C0E38787CE0E345
:1019600003F81F00E003E07F00F001F001FF7F00BB
:10197000FF7FF07F7EE003E0F39EFFE1FD0F00FEBE
:10198000FF031F40FC0FF801801FF0011FC007CFAD
:10199000033C87F300FE03800F001FE0010EFC03F1
:1019A0000F0000E0FF3FC03F001EE0FFFFF1788026
:1019B0007FC03FFF3FF8071EF807FC03F807F80752
:1019C000F807F83F783CE0F178F0BCE7011EE0F35F
:1019D000801F3C1C9E1F0C1C00FEFF03CC07E03840
:1019E000EEC17FE0011E80FF7FF01F303CE0818769
:1019F0003F00C0FFFF07C03FE0C1071EC083E701F3
:101A0000F803000000F8830F1C0E3838FCFFE303D6
:101A1000F83E00FF03F07F00F001F003E07F00FFDD
:101A20007FF03FFCE003E0F39EFFC17F1F00DF0774
:101A3000003FE0FC0FF001001FF0011FC007CF03C3
:101A4000F8877F00FE07800F801FE0010E3C00003A
:101A50000000F0C73FC03F001EE0FFFFF178807F2D
:101A6000C03FFF7FF8071EF807FC03F807F807F8E8
:101A700007E0FF783CE0F178E01DF7003FC0F3C0DD
:101A80000F0E1CF87F0E1C00FEFF038C07601CFC71
:101A9000813FE0011E80FF7FF01F307CF081C70F87
:101AA00078C0FFFF07C03FE0C1031EC003E001F89C
:101AB00003000000F8830F1C0E3838FCFFE303F826
:101AC0003E00FF03F07D00F001E003E07F00FF7FB8
:101AD000F03FFCE003E0F39EFFC17F1F00DF070043
:101AE0003EF0BD0FF07D001FF0011FC007FF03F89F
:101AF000877F00DF0F800FC00FE0010C3C0000006B
:101B000000F8C03FC03F001EE01F00F078807FC09B
:101B10003FFF7FF8071EF807FC03F807F807F807F0
:101B200080FF793CE0E13DE01DF7803FC0F3C00756
:101B30003C1CDEF90F0000FEFF7B8C07701CFC01D3
:101B40001FE0011E80FF7F0000387CF081E70778EE
:101B5000C0FFFF7FE03FE0E1031EC003E001F81F8C
:101B6000000000FF03001C1E3C1CFEFFE703F87E84
:101B700080FF03F87D00F001E007E07F00FF7FF0C9
:101B80003FF8E103E0E38EFF817F3F80DF07007EC7
:101B9000F0BF0FF07D001FF0011FC007FE01F887A6
:101BA0007F809F0F800FE007E0011C3C00000000D9
:101BB000F8C03FE03FE01FE01F00F0F8C07FC03FEB
:101BC000FFF9F8071EF807FC07FC0FFC07F80700F1
:101BD000F8793CE0E13DE01DF7807FC07FE0037CC9
:101BE0001CDFE0070000FEFF7BCC07301CFC033E3F
:101BF000E0031F00E0010000187CF081F70378E0AB
:101C0000FFFF7FE07FF0E1033EE03FF000F07FF870
:101C1000FFE3FF01003C1E3E1EFEFFE703F87C8051
:101C2000EF03F87C00F001E007F07F00FF7FF03F5A
:101C3000F0E303E0E38FFF817F7EC0CF0700FCE08D
:101C40009F0FF0F9001FF0013FE007FE01F8037F4E
:101C5000808F1F800FE007E0011C3C00000000782F
:101C6000E03FE07FE03FF03FF0F0F8C07FC03FFF93
:101C7000F8F8071EF807FC07FC0FFC0FFC073EE016
:101C8000797CF0E13DE01FFFC0FF807FF001781C10
:101C90000F80033E00703CF8CC07381CFC877FC0E7
:101CA000030F00E0810FE01BF8F880FF01F8E0036C
:101CB000F0F8F0F9F8E003FCF87DF8FE87FFFBFF91
:101CC000FB3F800F38FCFF0F3EC0E703FCFCE1EF59
:101CD00003FE7C00F001C01FFC7F00FFFFF83FE027
:101CE000E303E0E38FFF017FFEF1CF0700FCC38F2A
:101CF0000FF0F9C10FF001FEF803FE01F0033FC041
:101D00000F1F800FF003E001183C00000000F8F006
:101D10007FF0F9F07DF87DF8F0F0E17FC03FFFF053
:101D2000F9071EF807BC0FBE1F3E1FFE073EE079F5
:101D30007CF8C11FC00F7EE0F3807FF800781C0F95
:101D400000003E00783CF0FF031C38CEFFFFC003CC
:101D50000F00E0810FE01BF8FF80FFFFF7FF03F0AB
:101D6000F0FFF9FFF001FCFFF87FFE07FEFFFFFF29
:101D70000F800F78F8F3071F80EFFF7FF8FFE7FF72
:101D80007FFCFFFF01C0FFFF7F00FFFFFF3EE0E79A
:101D9000FFFFE38FFF017FFCFFC70700F8FF9F0FE6
:101DA000F0F1FF0FF001FEFF03FC00F0033FC0075E
:101DB0003F800FF0FFFF01383C00000000F8FFFFFC
:101DC000FFF9FFFCFFFD7FF0F0FF7FC03FFFE0F970
:101DD000071EF807BCFFBFFF3FFFFF077CF0F9FFBE
:101DE000FFC11FC00F7EE0F3813FF8FF791C0F0099
:101DF000003E00781CF0FF031CF8CFFFFBC0030F70
:101E000000E0810FE00FF07F80FFFFF7FF01F0F0AF
:101E1000FFF07FF001F8FFF87FFE07F0FFFFFF0102
:101E2000800F70F0E1011F80EFFF7FF0FFE3FF3FC5
:101E3000FCFFFF0180FFBF7F00FFFBFF3EC0EFFF05
:101E4000FFC387FF017EF8FFC30700F0FFBF0FF05D
:101E5000E1FF07F001FCFF01FC00F0033FE0073E5B
:101E6000800FF0FFFF01383C00000000F8FFFFFF8B
:101E7000F07FF8EFF97FF0E0FF7FC03FFFE0FB0766
:101E80001EF8073CFF9FFF1FFEFF07FCFFF8FBFF4C
:101E9000C11FC00F7EF0E1033FF8FF791C0F000067
:101EA0003E00781CE0FF000EF007FFF1C1030700C1
:101EB000E0810FE00FE03F80FFFFE7FF00F0E07FF1
:101EC000E03FF001F07FE03FFE07C007003C0080EC
:101ED0000FF00000801F80FFFF3FE0FFE1FF1FFCCD
:101EE000FFFF0100FE9F7F00FFF37F3E80FFFFFFAB
:101EF000C387FF017EF0FFC10700E0FFFF0FF0C3C3
:101F0000FF03F001F8FF00FC00E0011EF0037E80FB
:101F10000FF0FFFF01303C00000000F0DFBF7FE06A
:101F20007FF0EFF11FF0C0BF7FC03FFFC0FF071E73
:101F3000F8073CFE8FF70FFEFB07F87FF0FBEF8101
:101F40000F80073CF8E1073FF8FF791C0F00003EC7
:101F500000381E003F0006C0017C0080870700E0BB
:101F6000810FE00FC01F80FFFF873F00F0801F80C0
:101F70000FF001C01F800FFE070006000C00800F4D
:101F8000E00100800F00FFFF0F807FE0FF03FCFFF8
:101F9000FF0100FC877F00FFC31F3E80FFFFFFC3E0
:101FA00087FF017CC07FC0070080FFBC0FE0037F7C
:101FB00000F001E03F007800E0011EF003FC800F1C
:101FC000F0FFFF01303C00000000E0C73F3E801FF3
:101FD000E0E3C107F0809F7FC03FFFC0FF071EF80E
:101FE000073CF883C707F8F907E01FE0E3E3810F38
:101FF00080073CF8C0071FF8FF791C0F00000000A5
:10200000381E000C00000000000080870700000060
:102010000C000000000000000000000000000000B4
:10202000000000000000000600000000000000C0EA
:102030000700000000000000000000000000000099
:102040000000000000000000000000000000000090
:102050000000000000000000000018000000000068
:102060000000000000000000000000000000000070
:1020700000E001003C000000000000000000000043
:102080000000000000800700000F000000000000BA
:102090000000800700007800000000000000000041
:1020A00000000000001F0000781C0F00000000006E
:1020B00000000C0000000000000087030000000C7E
:1020C0000000000000000000000000000000000010
:1020D0000000000000000600000000000000C03FFB
:1020E000F000000000000000000000000000000000
:1020F00000000000000000000000000000000000E0
:1021000000000000000000000000000000000000CF
:1021100000000000000000000000000000000000BF
:10212000E001003C00000000000000000000000092
:10213000000000F8C00700000F00000000000000D1
:102140000080070000780000000000000000000090
:10215000000000001F0000781C0F000000000000BD
:10216000000C00000000000000CF030000000E0083
:10217000000000000000000000000000000000005F
:102180000000000000070000000000000000FFFF4A
:10219000000000000000000000000000000000003F
:1021A000000000000000000000000000000000002F
:1021B000000000000000000000000000000000001F
:1021C000000000000000000000000000000000E02F
:1021D00001003C00000000000000000000000000C2
:1021E0000000F8C00700000F000000000000000021
:1021F00080070000780000000000000000000000E0
:102200000000800F0000781C0F000000000000009C
:102210000000000000000000CE01000000070000E8
:1022200000000000000000000000000000000000AE
:1022300000000080030000000000000000FEFF001E
:10224000000000000000000000000000000000008E
:10225000000000000000000000000000000000007E
:10226000000000000000000000000000000000006E
:102270000000000000000000000000000000E01F5F
:10228000C03F00000000000000000000000000004F
:1022900000F0F30300C00F00000000000000008009
:1022A00007000078000000000000000000000000AF
:1022B00000E00F0000781C0F00000000000000008C
:1022C00000000000000000FE01000080030000008C
:1022D00000000000000000000000000000000000FE
:1022E0000000C0010000000000000000F81F000016
:1022F00000000000000000000000000000000000DE
:1023000000000000000000000000000000000000CD
:1023100000000000000000000000000000000000BD
:1023200000000000000000000000000000E01FC0EE
:102330003F00F0FF3F000000000000000000000030
:10234000F0FF0300C00F0000000000000000800745
:102350000000780000000000000000000000000005
:10236000E0070000F8FF0F00000000000000000080
:10237000000000000000FC000000800000000000E1
:10238000000000000000000000000000000000004D
:1023900000400000000000000000000000000000FD
:1023A000000000000000000000000000000000002D
:1023B000000000000000000000000000000000001D
:1023C000000000000000000000000000000000000D
:1023D000000000000000000000000000E01FC03FFF
:1023E00000F0FF3F0000000000000000000000E0DF
:1023F000FF0100C00700000000000000008007008F
:10240000007800000000000000000000000000E074
:10241000070000F0FF0700000000000000000000BF
:1024200000000000000000000000000000000000AC
:10243000000000000000000000000000000000009C
:10244000000000000000000000000000000000008C
:10245000000000000000000000000000000000007C
:10246000000000000000000000000000000000006C
:10247000000000000000000000000000000000005C
:10248000000000000000000000000000000000004C
:102490000000000000000000000000000000807F3D
:1024A0000000C007000000000000000080070000DE
:1024B0007800000000000000000000000000E001C3
:1024C0000000E0E3030000205F00C40177067611FE
:1024D00054235533654D66616665656D6575657F29
:1024E000658F6694559D66A254AA65B9A6C355D357
:1024F00055E355F365026511552154326541774620
:10250000774B655B666A657A668A75A754BD67D046
:1025100065E556FA660C661C65326645664A65597D
:10252000666D667D669476A755BE66D065E776FAD9
:10253000650D54207633554755645578558C659D07
:1025400056A544AE74B676C444D686DB65EA66FA10
:102550006509751955295433754376527656745C5E
:10256000666B766F8687769665A766B775C756D110
:1025700065E155EA76F9640A54236533654365518C
:10258000665A775D6666767415253343565E4D410F
:1025900058004D494E001156000010000000000088
:1025A000000000000000000000000000000000002B
:1025B000000000000000000000000000000000001B
:1025C000000000000000000000000000000000000B
:1025D00000000000040000000000000000000000F7
:1025E0000000000000000000000000000000DED835
:1025F0007C0C828779080000F2401E1E387E9E7F88
:102600001E1E000000F0C10F38FCC1E787FF7F7C71
:10261000061E3CB881831F8C8F3FF8F887CFFF03DD
:102620000F3C0C0F1EF8FFE331000C600000188017
:102630000106F6C0000000000000000000000000DD
:1026400000001F00DED8FE1EC18FFD2A0000FA61C7
:102650003F3F3C7EBF7F3F3F000000F8731838FCCF
:10266000E3EF9FFF7FFE061E3C9C81833FCC9F7F54
:10267000FCF9CFDFFF030F3C0C1F3FFCFFE33100F1
:102680001060000018C00106F6C000000000000045
:1026900000060000000000803F00DED8D633C18C69
:1026A000CD1C00009FFFF373368673B0F3730000F8
:1026B00000181B207C0C777CB88101C7071E3C8E5C
:1026C00081833FECB8E18E1BEC380C031B360C1BEE
:1026D000330C7C8679000060000018C00006C0C082
:1026E000000000000000000600000000008035002F
:1026F00096FE17B3C00C871D00000DFFE161368602
:1027000001B0E161000000188B6F6C0C3678B0816D
:102710000183071E3C8781C76F6CB0C1061B6C30FC
:102720000C031B668CB161066C84CD00C067878783
:102730009FE7B9F7F6F87BB7C7B3C3BD7D3F3C3C15
:10274000C6E3E1BF350006FE1F9E80078623060014
:102750000DE36170339F1D18B3E107061800CF48E1
:10276000EE0C3F60F0818103FE1FBC8381C76F7C4C
:10277000F0C1071FEE010C031B669EF16106668423
:10278000CD00E0EFCFCFDFEFFDFFF7DCFFFFEFF78E
:10279000E7FFFF3F3C3CC6E3E1BF3500066C3C4C25
:1027A0008063860106800D63703C33BF3F189EF343
:1027B00087FF7F80474CC6FC1B60E0BFBF01FE1F48
:1027C000FC818145CF3CE0E103FEC70F0C0333637E
:1027D0009EE1C003678C870160ECFCFC7CD8CE8F47
:1027E000F7CEE77C7C7E7E7EC6366C66663663B846
:1027F0003500026C7840C677860106800C6338BCD1
:1028000031F1730C3F7FE0F9E781654CC7FD1B6038
:10281000E0BFBFE1071EFC83816DCF3CE07F03FE7C
:10282000071F0C0333C3D2E0C08363888701006EA7
:102830007860F8DF8687F7C7633C3C3C3C3C1E363B
:102840006C66663E339C354702FFF0206F3E86C1C2
:102850003F8F0C631CF07FE0618C736E380000C703
:102860006444830D3F60F08181E3071E3C87816DE6
:102870008F7DF03F471E0E380C0333C3F3F0818188
:1028800061880100C06F7860F8DF8687F7CF633C0E
:102890003C3C3C3C7C366C666F1C36CCE44C02FF06
:1028A000D0A0791C86C13FCF0C638EE17FE0618CA4
:1028B0006160380000C76466FF0D3678B08101831F
:1028C000077E3C8E81298F6DB001E61B6C300C03B6
:1028D000E3C1F3B081C160980100E06C786078C01A
:1028E0008687F7CD633C3C3C3C3CE036CCC33F3E66
:1028F000368EB5380036D690791C860106409C632A
:102900008773B0F37386F373E0F9E7014CA6FF0F0A
:10291000777CB88101C7077E3C9C81390FEFB801F5
:10292000CE1BEC380C87E381611883E160900100D5
:1029300060ECFCFCFCDCCE87F7DC633C7C7E7E3EFE
:10294000C636CEC339361E8735000636FE10CF3F59
:102950008601C670F8E17F3F303F3F063FBF87FFEB
:102960007FC0889901FFE3EF9FFF01FE07FE3FB89C
:10297000FF390FCF9F01FC19DC1F0CFEC180611CC9
:1029800087E17F900100E0EFCFCFDFCFFC87F7D862
:10299000633CECF7E73FFEFE8F8119639CBF350077
:1029A00006367C0886738601C670F0E07F1E301EF6
:1029B0001E061E9E070618C0188001FFC1E787FF8C
:1029C00001BC07DE37F0FF110F8E8F01F81B9C0F43
:1029D0000CFCC080610C86E17F900100C07D878780
:1029E0009BC7B887F7F8633CCCB3C33D7CEC8D81C3
:1029F00019638CBF3500000010000000CC0080007F
:102A00000000000000000000000004000000700C46
:102A100000000000000000000000000000000000B6
:102A200000000001000000000000000000006080C5
:102A300001000000000000008001300000000030B4
:102A4000000C0000000000000C80350000000000B9
:102A50000000FC00800000000000000000000000FA
:102A600004000000C007000000000000000000009B
:102A70000000000000000000000000000000000056
:102A800000000000E0E10100000000000000CE01B5
:102A9000300000000030000C0000000000000C803E
:102AA0003F0000000000000078004000000000002F
:102AB0000000000000000200000000000000000014
:102AC0000000000000000000000000000000000006
:102AD00000000000000000000000E0E101FE030033
:102AE00000000000FC00380000000030000C000076
:102AF0000000000007001F000000000000000000B0
:102B000000000000000000000000000000000000C5
:102B100000000000000000000000000000000000B5
:102B200000000000000000000000000000000000A5
:102B30000000000000000000000078001800000005
:102B40000030000C00000000000003000400205FC3
:102B500000840166036508441155185425552F5506
:102B60003155356439543E55465548544C554E54AC
:102B700052545A755F5467546F5477547F54875436
:102B80008F5497549F56A156A355AB55B355BB656B
:102B9000C265CF54DA55E355ED55F755FF55075546
:102BA00011551B551D5524452F55375542554C552C
:102BB000575560556B5575557E44885592549C54B5
:102BC000AA55B354BD55C555C954CD64D155D94442
:102BD000E256E545ED55F545FD5505550D551155A3
:102BE00019552155235526452E5530553C554455EC
:102BF0004C5554555C45615568556C5574547C541E
:102C000088558F5497549E55A265A355A755AF2656
:102C1000445E005EBCE2613FDD83C29C7E20A3FD7A
:102C20001F419DC3217FFCA2401E5F01E3BD3E60AA
:102C300082DC237D9FC1421CFEA0E1BF5D0380DEDC
:102C40003C62BEE0025CDF81633D7C22C09E1D438E
:102C5000A1FF4618FAA427799BC584DA3866E5BB3C
:102C60005907DB856739BAE406581947A5FB78266A
:102C7000C49A653BD987045AB8E6A7F91B45C6989C
:102C80007A24F8A6441A99C7257B3A6486D85B054E
:102C9000E7B98CD2306EEDB3510F4E10F2AC2F71FC
:102CA00093CD114FADF3702ECC92D38D6F31B2EC2A
:102CB0000E50AFF1134DCE90722C6D33D18F0C525C
:102CC000B0EE326C8ED0530DEFB1F0AE4C1291CF0E
:102CD0002D73CA947628ABF517490856B4EA6937BC
:102CE000D58B5709EBB536688AD495CB2977F4AAEA
:102CF0004816E9B7550B88D6346A2B7597C94A141C
:102D0000F6A8742AC896154BA9F7B6E80A54D789CD
:102D10006B3500000000240027002A00000000009E
:102D2000250028002B0000000000230026002900B9
:102D30000404040404040404020202020202030361
:102D40000303030301020408102040800102040869
:102D50001020010204081020D92F11241FBECFEF2C
:102D6000D8E0DEBFCDBF11E0A0E0B1E0E2EDFBE6D0
:102D700002C005900D92A439B107D9F728E0A4E963
:102D8000B1E001C01D92A030B207E1F716E1CDEA33
:102D9000D6E104C02197FE010E94CA35CC3AD10782
:102DA000C9F70E9414250C94E7350C940000CF92CB
:102DB000DF92EF92FF920F931F93CF93DF936C01FB
:102DC0007A018B01C0E0D0E0CE15DF0589F0D80193
:102DD0006D918D01D601ED91FC910190F081E02D76
:102DE000C6010995892B11F47E0102C02196ECCF12
:102DF000C701DF91CF911F910F91FF90EF90DF906E
:102E0000CF9008953FB7F8948091DC029091DD0255
:102E1000A091DE02B091DF0226B5A89B05C02F3F2E
:102E200019F00196A11DB11D3FBFBA2FA92F982FF0
:102E30008827820F911DA11DB11DBC01CD0142E06B
:102E4000660F771F881F991F4A95D1F70895089537
:102E500085ED8093BC008091BC0084FDFCCF109276
:102E6000B102089540918B02262F30E0240F311DCE
:102E700021323105DCF42091B1022430C9F4FC0187
:102E800080E090E0861758F430918B022191DC01AC
:102E9000A759BD4FA30FB11D2C930196F3CF80917D
:102EA0008B02680F60938B0280E0089581E00895A3
:102EB00082E0089508958FEF9FEF08958FEF9FEFC1
:102EC00008958091680290E0919581959109089507
:102ED000CF93DF9300D0CDB7DEB7CB01642F49830A
:102EE0005A830E9432174981842F5A81952F0F905F
:102EF0000F90DF91CF910895CF93DF931F92CDB7BD
:102F0000DEB7698361E0CE0101960E94321781E04D
:102F100090E00F90DF91CF910895089528E030E080
:102F200090E8492F482311F0409A01C040985C9ADC
:102F30005C9A5C985C9896952150310991F70895B8
:102F4000089580E090E008950E94D03584E397E0F2
:102F50000E943F2021E0892B09F420E0822F089570
:102F60004F925F927F928F929F92AF92BF92CF9239
:102F7000DF92EF92FF920F931F93CF93DF931F92F5
:102F8000CDB7DEB790916002E42F042E000CFF0B4A
:102F9000292F30E0E217F3070CF48DC0491BA42F52
:102FA000042E000CBB0B2091610230E0A217B30786
:102FB0000CF081C0E0906402F0906502F70124916A
:102FC00031960491211123C020916602309167024D
:102FD00090E040E050E0F901E90FF11DE4910E2F7F
:102FE00010E00A171B071CF453959F5FF4CFAA0F3C
:102FF000BB1F97012A0F3B1FF90194913196049151
:10300000319624912A01490E511C291B03C0420309
:1030100020011124962E182FE02EF12C94E0F59427
:10302000E7949A95E1F73CEF732E720E14500F70EF
:10303000100FA0906202B0906302062F90915E0282
:10304000802F89198917A0F56201812E8C2D841992
:10305000821740F5F60183E0F695E7958A95E1F74A
:10306000EA0DFB1DE4914E2F50E060E070E0C601D8
:103070008770992704C076956795579547958A95E7
:10308000D2F740FF0AC087FC08C0003430F4602F3C
:10309000882D29830E94972229818394FFEFCF1ADC
:1030A000DF0AD4CF80915F02A80EB11C0F5FC6CF9C
:1030B000872D8E0D01C080E00F90DF91CF911F9181
:1030C0000F91FF90EF90DF90CF90BF90AF909F90C7
:1030D0008F907F905F904F9008951F920F920FB640
:1030E0000F9211242F933F934F935F936F937F938E
:1030F0008F939F93AF93BF93EF93FF9384E397E0F6
:103100000E948A24FF91EF91BF91AF919F918F917F
:103110007F916F915F914F913F912F910F900FBED3
:103120000F901F9018951F920F920FB60F921124B7
:103130002F938F939F93EF93FF93E0914407F09128
:1031400045078081E0914A07F0914B0782FD12C04C
:10315000908180914D078F5F8F7320914E0782176A
:1031600051F0E0914D07F0E0EC5CF84F958F8093C3
:103170004D0701C08081FF91EF919F918F912F9119
:103180000F900FBE0F901F901895833081F028F498
:10319000813099F08230A1F008958730A9F088300D
:1031A000B9F08430D1F4809180008F7D03C080918C
:1031B00080008F7780938000089584B58F7702C058
:1031C00084B58F7D84BD08958091B0008F7703C052
:1031D0008091B0008F7D8093B00008951F93CF93AE
:1031E000DF93282F30E0F901EF56FE4F8491F9016B
:1031F000EC5BF24DD491F901E05DF24DC491CC232A
:10320000C9F0162F81110E94C518EC2FF0E0EE0FC7
:10321000FF1FE45EF24DA591B4918FB7F8941111A0
:1032200005C09C91ED2FE095E92302C0EC91ED2BB8
:10323000EC938FBFDF91CF911F910895CF93DF93D0
:1032400090E0FC01EC5BF24D2491FC01E05DF24D5D
:103250008491882361F190E0880F991FFC01EE5E54
:10326000F24DC591D491FC01E45EF24DA591B4916B
:10327000611109C09FB7F8948881209582238883C3
:10328000EC912E230BC0623061F49FB7F894388123
:10329000822F809583238883EC912E2B2C939FBFC4
:1032A00006C08FB7F894E8812E2B28838FBFDF915B
:1032B000CF9108951F93CF93DF93182FEB0161E017
:1032C0000E941E19209711F460E004C0CF3FD10581
:1032D00039F461E0812FDF91CF911F910C94EE18AA
:1032E000E12FF0E0EF56FE4FE491E330F9F048F4BF
:1032F000E130B9F0E230A1F584B5806284BDC8BD8B
:1033000034C0E730E9F0E83019F1E43049F5809154
:103310008000806280938000D0938B00C0938A00ED
:1033200024C084B5806884BDC7BD1FC08091800063
:10333000806880938000D0938900C093880015C076
:103340008091B00080688093B000C093B3000DC03E
:103350008091B00080628093B000C093B40005C03B
:10336000C038D1050CF0B5CFAFCFDF91CF911F9111
:1033700008958F929F92AF92BF92CF92DF92EF9279
:10338000FF926B017C010E9402174B015C01C1148A
:10339000D104E104F104F1F00E940217DC01CB0139
:1033A00088199909AA09BB09883E9340A105B1056E
:1033B00070F321E0C21AD108E108F10888EE880E06
:1033C00083E0981EA11CB11CC114D104E104F104D6
:1033D00019F7DDCFFF90EF90DF90CF90BF90AF90C7
:1033E0009F908F9008952FB7F8946091D8027091B4
:1033F000D9028091DA029091DB022FBF08951F92CB
:103400000F920FB60F9211242F933F938F939F9398
:10341000AF93BF938091D8029091D902A091DA0224
:10342000B091DB023091D70223E0230F2D3720F437
:103430000196A11DB11D05C026E8230F0296A11D0E
:10344000B11D2093D7028093D8029093D902A09304
:10345000DA02B093DB028091DC029091DD02A09150
:10346000DE02B091DF020196A11DB11D8093DC0246
:103470009093DD02A093DE02B093DF02BF91AF9183
:103480009F918F913F912F910F900FBE0F901F90A2
:1034900018951F920F920FB60F9211242F933F93FE
:1034A0004F935F936F937F938F939F93AF93BF934C
:1034B000EF93FF93E0910201F09103010995FF91D1
:1034C000EF91BF91AF919F918F917F916F915F919C
:1034D0004F913F912F910F900FBE0F901F90189515
:1034E0001F920F920FB60F9211242F933F934F9379
:1034F0005F936F937F938F939F93AF93BF93EF935C
:10350000FF93E0910001F09101010995FF91EF9186
:10351000BF91AF919F918F917F916F915F914F91EB
:103520003F912F910F900FBE0F901F9018951F92F3
:103530000F920FB60F9211242F933F934F935F93E7
:103540006F937F938F939F93AF93BF93EF93FF936B
:103550008091B900887F803609F49CC068F5883274
:1035600009F45BC090F4803109F454C038F4882326
:1035700009F4F6C0883009F44DC0F6C0883109F46A
:103580004CC0803209F45DC0EFC0803409F468C0DB
:1035900048F4803309F455C0883309F0E5C08093BE
:1035A000B002D8C0803509F44FC0883509F45DC039
:1035B000883409F0D9C0D6C0883909F4C7C0A8F446
:1035C000883709F467C038F4883609F463C0803757
:1035D00009F460C0C9C0883809F4B8C0803909F45A
:1035E0005FC0803809F0C0C05BC0803B09F486C072
:1035F00038F4803A09F466C0883A09F47FC0B4C050
:10360000803C09F4A7C0883C09F4A4C0883B09F4B5
:103610008AC0AAC08091D60210C09091D502809134
:10362000D402981770F5E091D50281E08E0F809357
:10363000D502F0E0EC54FD4F80818093BB0085EC17
:1036400086C08093B0028EC0E091D50281E08E0FDB
:103650008093D5028091BB00F0E0EC54FD4F808355
:103660009091D5028091D4026EC0E091D50281E0A4
:103670008E0F8093D5028091BB00F0E0EC54FD4F9B
:1036800080838091B30281116DC081E08093B2028A
:1036900084EA61C083E08093B1021092AF02CFCF81
:1036A0008091AF02803208F051C0E091AF0281E01A
:1036B0008E0F8093AF028091BB00F0E0E157FD4F89
:1036C0008083BDCF85EC8093BC001092B1028091C5
:1036D000AF02803230F4E091AF02F0E0E157FD4FED
:1036E00010826091AF0270E0E0918D02F0918E0245
:1036F0008FE892E009951092AF0236C084E0809383
:10370000B10210928C0210928B02E0918902F0912A
:103710008A02099580918B02811105C081E0809316
:103720008B0210926902E0918C0281E08E0F8093EF
:103730008C02F0E0E759FD4F80818093BB009091AF
:103740008C0280918B02981708F479CF85E88093DA
:10375000BC000AC085EC8093BC001092B10204C08A
:103760001092B0020E942817FF91EF91BF91AF9184
:103770009F918F917F916F915F914F913F912F9189
:103780000F900FBE0F901F901895DC01E0E0615084
:1037900038F08D91E827F0E0EE5EF34DE491F7CF3D
:1037A0008E2F0895FC0190810180F281E02DF89424
:1037B0008181892B81832281892F809528232283EF
:1037C000A7E0B0E01197F1F7218182238183A3E282
:1037D000B0E01197F1F780817894EFECF0E0319749
:1037E000F1F7982381E009F480E00895EF92FF92C9
:1037F0000F931F93CF93DF937C0108E010E0C0E0AC
:10380000D1E0C7010E94D21B8111CD2BDD0F0150E9
:103810001109B9F78C2FDF91CF911F910F91FF9074
:10382000EF900895FC0190810180F281E02D892FB5
:10383000809560FF12C0F894228182238283818167
:10384000892B8183A3E2B0E01197F1F78281982B55
:103850009283789487ED90E011C0F89422818223BE
:1038600082838181892B8183AFEFB0E01197F1F7DB
:103870008281982B928378948FE090E00197F1F702
:103880000895CF92DF92EF92FF920F931F93CF9301
:10389000DF931F92CDB7DEB76C01E62E08E010E093
:1038A000FF24F39461E08F2D8E2109F460E0C601BE
:1038B00049830E94121CFF0C015011094981011516
:1038C000110581F7411115C0F894D6011196ED91BB
:1038D000FC91129791818C91809589238183119617
:1038E000ED91FC91129792818C918095892382832E
:1038F00078940F90DF91CF911F910F91FF90EF90EF
:10390000DF90CF900895CF92DF92EF92FF920F93C6
:103910001F93CF93DF931F92CDB7DEB78C01F62EA6
:1039200040E065E579830E94411CCF2C7981D72E38
:10393000760188E0E80EF11CF60161916F0140E02C
:10394000C8010E94411CCE14DF04B1F70F90DF9133
:10395000CF911F910F91FF90EF90DF90CF9008953E
:10396000FC0190810180F281E02DF8948181292F62
:1039700020958223818378948DE743E050E0815045
:1039800021F1DA011197F1F730813923C1F3F8946D
:103990008281822382838181892B81837894ABE722
:1039A000B7E01197F1F7F894818128232183A3E1EF
:1039B000B1E01197F1F78081982381E009F080E070
:1039C0007894E3E6F6E03197F1F7089580E094E02B
:1039D000E4E3F3E0DF019C011D9221503040E1F768
:1039E00010923303109231038FE7809332038FE3F9
:1039F0008093300308950F931F93CF93DF93C82FC5
:103A0000D62F8A01F80144914423D9F06D2F8C2FD1
:103A10000E94B017C80F90E08C0F911D803891055F
:103A20001CF40F5F1F4FEECF20915E02822F90E0BB
:103A30008D0F911D803491051CF4D20FC0E0F1CFA1
:103A4000C0E08C2FDF91CF911F910F9108950F93BC
:103A50001F93CF93DF93C82FD62F8A01F80141918E
:103A60008F014423C1F06D2F8C2F0E94B017C80F17
:103A700090E08C0F911D8038910584F320915E02B7
:103A8000822F90E08D0F911D803491051CF4D20F90
:103A9000C0E0E4CFC0E08C2FDF91CF911F910F9158
:103AA0000895FC01449140935E029C012E5F3F4FBC
:103AB0003196849180935F02309363022093620277
:103AC000F901489FE00DF11D11249491909360023B
:103AD000AF014E5F5F4F3196249120936102509366
:103AE000650240936402FA01949191110AC0E20FB9
:103AF000F11DE20FF11D3196F0936702E09366022B
:103B000008951092670210926602089543980C94EB
:103B10008E17FF920F931F93CF93DF9390913303F0
:103B200080913203891708F451C010913103169522
:103B30001695169557E0F52EC12FD0E080913003F1
:103B400090E023E0959587952A95E1F78C179D07DE
:103B50009CF1812F8F25806B0E94861D80913303FD
:103B600090E0049634E0959587953A95E1F78F704B
:103B700080610E94861D809133038C5F8F700E944C
:103B8000861D80EE0E94861D00913303D695DC2FA2
:103B9000CC27D795C795CC5CDC4F8091320380173A
:103BA00048F0FE01E00FF11D8081439A0E948E17BC
:103BB0000F5FF3CF1F5FC0CF10923203109230031C
:103BC0008FE7809333038FE380933103DF91CF91AD
:103BD0001F910F91FF900895E8982A988EBD0DB41B
:103BE00007FEFDCF8EB56EBD0DB407FEFDCF8EB5C1
:103BF0002A9AE89A089560E00C94EC1DCF93C82FA0
:103C000081E00E94FB1D837E682F6C2B81E8CF91A1
:103C10000C94EC1D88E20E94FB1D807521F080E071
:103C20000E94FB1DF7CF08958627682F62956827AD
:103C3000062E669566956025062E6695602567704A
:103C4000082E892F669507946795902D86270694F0
:103C5000679590258627089580912F03853009F078
:103C60004DC060E485EA0E94EC1D84E20E94FB1DC9
:103C700080935D02789488E20E94FB1D8075D9F3E1
:103C80008091E60281110FC0E091E102F091E20221
:103C90008091E60291E0980F9093E6029091E50200
:103CA000E80FF11D908380E00E94FB1DE091E1028E
:103CB000F091E2029091E60221E0290F2093E602C2
:103CC000E90FF11D8083682F8091E3029091E40257
:103CD0000E94141E9093E4028093E3028091E90213
:103CE0002091E60290E0049630E082179307A4F05A
:103CF0008091E602883408F4BECF089588E20E94DD
:103D0000FB1D83FF09C084E080932F030E94FE1DEA
:103D100060E885EA0C94EC1D08954F925F926F92D3
:103D20007F92AF92BF92CF92DF92EF92FF920F936A
:103D30001F93CF93DF93CDB7DEB7EF970FB6F8940D
:103D4000DEBF0FBECDBF68AF79AF8AAF9BAF290191
:103D50003A01ECAEFDAE0EAF1FAF2FE240E86FE2CE
:103D600080E00E94132386E995E20E94511D8E0196
:103D70000F5F1F4F21E040E068AD79AD8AAD9BAD8C
:103D80000E946F3068E771E0C8010E94D535A80134
:103D900062E380E00E94271D81E79BE00E94511DA5
:103DA000C301B2010E946934DC01CB014AE0B801D1
:103DB0000E948F3068E771E0C8010E94D53542E962
:103DC00055E263E38EE20E94FB1CA80163E38EE3ED
:103DD0000E94271D6CAD7DAD8EAD9FAD0E946934F4
:103DE000DC01CB014AE0B8010E948F3068E771E046
:103DF000C8010E94D5354EE855E26BE38EE20E9481
:103E0000FB1CA8016BE38EE30E94271DC601B501D0
:103E10000E946934DC01CB014AE0B8010E948F3076
:103E200020E030E040E251E464966CAD7DAD8EADB3
:103E30009FAD64970E94F23387FF04C06AE771E088
:103E4000C80104C06EE771E0CE0101960E94D5352D
:103E500064966CAD7DAD8EAD9FAD64970E94693464
:103E6000DC01CB014AE0BE016D5C7F4F0E948F30C8
:103E7000BE016D5C7F4FCE0101960E94D53586E96B
:103E800095E20E94511DAE014F5F5F4F62E388E5EE
:103E90000E94271DEF960FB6F894DEBF0FBECDBF70
:103EA000DF91CF911F910F91FF90EF90DF90CF9016
:103EB000BF90AF907F906F905F904F9008954F921A
:103EC0005F926F927F928F929F92AF92BF92CF92AA
:103ED000DF92EF92FF920F931F93CF93DF93CDB7B3
:103EE000DEB7E2970FB6F894DEBF0FBECDBF5C0120
:103EF0002A013B014901670178010E94E61C0E94EA
:103F0000CB228FE99CE00E94511DB501CE010196A4
:103F10000E94E03561E871E0CE0101960E94D5353E
:103F2000AE014F5F5F4F60E080E00E94271DB4014B
:103F3000CE0101960E94E03567E871E0CE0101965E
:103F40000E94D535AE014F5F5F4F66E280E00E9470
:103F5000271D85EE9EE00E94511DC301B2010E9403
:103F60006934DC01CB014AE0BE016F5F7F4F0E94E4
:103F70008F3064E471E0CE0101960E94D535AE0128
:103F80004F5F5F4F69E083E00E94271D8FE99CE04F
:103F90000E94511D20E030E040E251E4C701B6012B
:103FA0000E94F23387FF0AC08E010F5F1F4F21E08E
:103FB00040E0C701B6010E946F300CC0C701B601D6
:103FC0000E946934DC01CB014AE0BE016F5F7F4F84
:103FD0000E948F306FE871E0CE0101960E94D535C6
:103FE000AE014F5F5F4F66E285E50E94271DE296B6
:103FF0000FB6F894DEBF0FBECDBFDF91CF911F91FA
:104000000F91FF90EF90DF90CF90BF90AF909F9077
:104010008F907F906F905F904F900895FC01538D2B
:10402000448D252F30E0842F90E0821B930B541792
:1040300010F0CF96089501970895FC01918D828D1F
:10404000981761F0828DDF01A80FB11D5D968C91EC
:10405000928D9F5F9F73928F90E008958FEF9FEFF7
:104060000895FC01918D828D981731F0828DE80FB3
:10407000F11D858D90E008958FEF9FEF0895FC016D
:10408000918D228D892F90E0805C9F4F821B91093A
:104090008F739927089580E090E0892B29F00E9482
:1040A000A61781110C9400000895EF92FF920F93D0
:1040B0001F93CF93DF937C018B01C1EDD7E08D81FE
:1040C0009E810E94B01CB7018D819E810E94831C3D
:1040D00040E06EEB8D819E810E94411C8D819E810E
:1040E0000E94F61BF80180838D819E810E94F61B41
:1040F000F80181838D819E810E94F61BF8018283E5
:104100008D819E810E94F61BF80183838D819E81A3
:104110000E94F61BF80184838D819E810E94F61B0C
:10412000F80185838D819E810E94F61BF8018683AC
:104130008D819E810E94F61BF80187838D819E816F
:104140000E94F61BF80180878D819E81DF91CF91BF
:104150001F910F91FF90EF900C94B01CAF92BF9203
:10416000CF92DF92EF92FF920F931F93CF93DF9343
:104170001F92CDB7DEB75C01D62EE72EFC018585F8
:10418000811105C0C5010E94B01C811106C0F50156
:1041900013861586148680E065C040E060EFC50197
:1041A0000E94411C01E0F12CC12C11E0C5010E94CC
:1041B000D21B682FC50169830E94D21B69816130BF
:1041C00019F48130B9F433C04F2D50E068131BC08F
:1041D000F5018385181730F4E40FF51F83818023E0
:1041E00049F402C0181731F060E0193058F4F501B5
:1041F000148708C0F501EF0DF11D8381802B8383A7
:1042000061E009C0C12EF501E40FF51F9381802FF5
:10421000809589238383C5010E94121C1F5F000FB4
:1042200011F4F39401E0F7E0FF1508F0BFCF11346B
:1042300008F4ADCFF501C386C11002C081E08587C7
:10424000F5018381882309F4A2CFD5011396ED2DC2
:10425000FE2D9501255F3F4F8D918193A217B307E6
:10426000D9F781E00F90DF91CF911F910F91FF90CF
:10427000EF90DF90CF90BF90AF9008954F925F92F4
:104280006F927F928F929F92AF92BF92CF92DF9266
:10429000EF92FF92CF93DF93CDB7DEB761970FB662
:1042A000F894DEBF0FBECDBFE091D607F091D707DF
:1042B000138615861486DF011B96CF0103961E9286
:1042C000A817B907E1F7BE01665F7F4FCF010E94D3
:1042D000AE20882329F067E0CE010A960E94C51B14
:1042E000BE016F5F7F4FCE010A960E94552068E0A5
:1042F000CE0101960E94C51B9985891389C08A81C8
:1043000090E0982F88272981822B2A852232B9F1C3
:104310002832A9F1203109F081C0F884BC017595DB
:104320006795072E000C880B990B0E94A13420E0A2
:1043300030E040E85EE30E9485334B015C018F2D45
:1043400090E02F81821B9109BC01990F880B990B7A
:104350000E94A1342B013C016F2D70E080E090E0C1
:104360000E949F349B01AC01C301B2010E94F7334C
:104370009B01AC01C501B4010E94863336C02D817A
:104380002F33B1F1A0F42F3109F048C0BC0123E074
:10439000759567952A95E1F7072E000C880B990B08
:1043A0000E94A13420E030E040E05FE31CC02F35E4
:1043B00069F02F3799F5BC01990F880B990B0E9472
:1043C000A13420E030E040E85DE30DC0BC0175950C
:1043D0006795072E000C880B990B0E94A13420E0F2
:1043E00030E040E05EE30E9456356B017C0116C070
:1043F000BC017595679575956795072E000C880B20
:10440000990B0E94A13420E030E040E85EE3EBCF5E
:10441000C12CD12C8EEFE82E82ECF82EC701B6010C
:1044200061960FB6F894DEBF0FBECDBFDF91CF917E
:10443000FF90EF90DF90CF90BF90AF909F908F90C4
:104440007F906F905F904F9008958091D6079091E4
:10445000D7070E94B01C40E06CEC8091D607909189
:10446000D7070E94411C4091D10764E48091D60790
:104470009091D7070E94411C8091D3078823E9F0CF
:104480008091D2078A3049F08B3061F0893079F41D
:104490006EE570E080E090E00EC06CEB70E080E0D4
:1044A00090E009C067E771E080E090E004C06EEE44
:1044B00072E080E090E00C94B9190895CF93DF93F7
:1044C000CDB7DEB729970FB6F894DEBF0FBECDBFCC
:1044D000FC012081203109F1BE016F5F7F4F0E94F6
:1044E000552068E0CE0101960E94C51B998589136D
:1044F00010C08D818F3359F018F48F3171F009C0DD
:104500008F3519F08F3739F004C08BE007C08AE08F
:1045100005C080E003C08CE001C089E029960FB699
:10452000F894DEBF0FBECDBFDF91CF910895E62F87
:10453000E695E695E69590E8E99FF0011124E80FED
:10454000F11DEC5CFC4F462F50E0409550954770B4
:10455000552721E030E001C0220F4A95EAF790810B
:10456000292B208390913303891710F48093330310
:1045700090913203981710F48093320380913103A5
:10458000681710F46093310380913003861710F49C
:1045900060933003089580913303811110923303A7
:1045A00080913103811110923103809132038F3752
:1045B00018F48FE780933203809130038F3318F41F
:1045C0008FE38093300340E050E061E070E04038DA
:1045D000510541F18FEF9FEF282F20958F3BBFEFC3
:1045E0009B07E9F02034C8F4269526952695FA0114
:1045F00030E8239FE00DF11D1124EC5CFC4F9C0181
:1046000027703327DB0102C0AA0FBB1F2A95E2F7F0
:104610009D0120953081232320830197DDCF4F5FBB
:104620005F4FD5CF08950F931F93CF93DF93909152
:104630003203981710F48093320390913303891753
:1046400010F48093330390913203941710F4409345
:10465000320390913303491710F440933303909140
:104660003003961710F4609330039091310369176B
:1046700010F46093310390913003921710F420935B
:10468000300390913103291710F420933103A22FA6
:10469000B0E0A61BB109B7FF03C0B195A195B10960
:1046A000E42FF0E0E81BF109F7FF03C0F195E19575
:1046B000F10951E0EA17FB0714F050E006C0942F0F
:1046C000422F292F982F862F692F481730F4962FC5
:1046D000622F292F982F842F492FC42FC81BE22F18
:1046E000F0E0E61BF109F7FF03C0F195E195F10950
:1046F0009E2F7C2F7695621710F0DFEF01C0D1E07E
:10470000A1E0B0E04817D8F1552391F067FD30C023
:10471000803470F5E82FE695E695E69500E8E09F91
:10472000F0011124E60FF11DEC5CFC4F282F11C0A5
:1047300087FD1EC06034E0F4E62FE695E695E69529
:1047400010E8E19FF0011124E80FF11DEC5CFC4F33
:10475000262F30E020953095277033278D0102C039
:10476000000F111F2A95E2F798013081232B208337
:10477000791B77FF02C06D0F7C0F8F5FC3CFDF9176
:10478000CF911F910F9108954F925F926F927F92F8
:104790008F929F92AF92BF92CF92DF92EF92FF9251
:1047A0000F931F93CF93DF931F92CDB7DEB7782E71
:1047B000862E7A01962E900E562E01E010E0622E83
:1047C000680E952D9819591461F1892F8695869553
:1047D00086959770680102C0CC0CDD1C9A95E2F7B3
:1047E0005701829FA00CB11C1124472C4614B9F02C
:1047F000F501A491B0E0AC21BD21AB2B59F047FCF1
:1048000009C0FFE3F51530F0652D842D29830E9442
:104810009722298143948FEFA81AB80AE7CF5394BF
:10482000D0CF0F90DF91CF911F910F91FF90EF901C
:10483000DF90CF90BF90AF909F908F907F906F90C0
:104840005F904F90089580912F03843019F0853048
:1048500031F133C01092E9021092E6026091E50254
:104860008FEF9FEF0E94141E9093E4028093E30267
:1048700087EE92E09093E2028093E10285E08093DC
:104880002F030E940A1E60E885EA0E94EC1D80E169
:104890000E94FE1D62E08EE90E94EC1D0EC0809118
:1048A000E9022091E60290E0049630E08217930737
:1048B0003CF08091E602883418F48FEF9FEF089562
:1048C00084E080932F030E94FE1D8091E9028334CF
:1048D00018F081E090E008958091E3029091E40265
:1048E000892BB9F78091E80286FF11C03091E00270
:1048F0003F3169F02091E8022F7181E090E02313AD
:1049000002C080E090E0919581959109089580E042
:1049100090E00895FC01848DDF01A80FB11DA35A1A
:10492000BF4F2C91848D90E001968F739927848FCF
:10493000A689B7892C93A089B1898C9180648C93C6
:10494000938D848D981306C00288F389E02D8081B1
:104950008F7D80830895EF92FF920F931F93CF93E3
:10496000DF93EC0181E0888F9B8D8C8D981305C0BF
:10497000E889F989808185FD24C0F62E0B8D10E031
:104980000F5F1F4F0F731127E02E8C8DE8120CC0A4
:104990000FB607FCFACFE889F989808185FFF5CF4A
:1049A000CE010E948A24F1CF8B8DFE01E80FF11D0C
:1049B000E35AFF4FF0820B8FEA89FB898081806286
:1049C00007C0EE89FF896083E889F9898081806466
:1049D000808381E090E0DF91CF911F910F91FF9054
:1049E000EF900895CF93DF93EC01888D8823C9F071
:1049F000EA89FB89808185FD05C0A889B9898C91E8
:104A000086FD0FC00FB607FCF5CF808185FFF2CF82
:104A1000A889B9898C9185FFEDCFCE010E948A24A7
:104A2000E7CFDF91CF910895CF93DF93CDB7DEB776
:104A3000C456D1090FB6F894DEBF0FBECDBF78942F
:104A400084B5826084BD84B5816084BD85B5826093
:104A500085BD85B5816085BD80916E008160809344
:104A60006E001092810080918100826080938100AD
:104A700080918100816080938100809180008160BD
:104A8000809380008091B10084608093B100809118
:104A9000B00081608093B00080917A008460809340
:104AA0007A0080917A00826080937A0080917A0007
:104AB000816080937A0080917A00806880937A0088
:104AC0001092C10064EF71E080E090E00E94B9199B
:104AD00080E090E8ACE6B0E080939401909395017B
:104AE000A0939601B093970182ED8093E50284E153
:104AF0008093E00264E170E080E090E00E94B919E8
:104B00008091E002882369F08CE29EE1909301019C
:104B10008093000180916900836080936900E89A26
:104B200007C0E89887E297E1909301018093000124
:104B30002A9A229A2A9A84B18C6284B980E58CBD23
:104B40008DB581608DBD6AEA8FEA0E94EC1D8FE20F
:104B50000E94FB1D8A3AB9F765E58FEA0E94EC1DB9
:104B60008FE20E94FB1D8535B9F702E611E0F801DE
:104B70008491882341F03196649180680E94EC1DF5
:104B80000E5F1F4FF4CF6091E50280EB0E94EC1D99
:104B9000C0909401D0909501E0909601F09097011B
:104BA000B7018827992787E80E94EC1D99278F2D48
:104BB0007E2D6D2D88E80E94EC1D6C2D89E80E94E9
:104BC000EC1D84E080932F0384E18093980164E6D8
:104BD00070E080E090E00E94B91961E08EE00E94F0
:104BE0001E1961E084E00E941E1961E081E10E94CB
:104BF0001E1961E087E00E941E1960E087E00E94B4
:104C0000EE18FFEF09E618E1F15000401040E1F71F
:104C100000C0000061E087E00E94EE1883EA0E9475
:104C2000861D80EA0E94861D80EC0E94861D80E41D
:104C30000E94861D8FE20E94861D84E20E94861DCE
:104C400010923203109230038FE7809333038FE387
:104C5000809331038FEA0E94861D84EA0E94861D9C
:104C600081E80E94861D89E10E94861D0E94E61C43
:104C700068EC70E083E00E945A19E091D607F09149
:104C8000D707138615861486DF011B9633961E926E
:104C9000AE17BF07E1F71092D50711E0BE016D5CBA
:104CA0007F4F8091D6079091D7070E94AE2088232E
:104CB00009F452C067E0CE01C3960E94C51B9AADAD
:104CC0008913ECCF8091D107811128C08091D6073C
:104CD0009091D7070E94B01CBE016D5C7F4F809100
:104CE000D6079091D7070E94831C40E064EB809127
:104CF000D6079091D7070E94411C8091D6079091CA
:104D0000D7070E94D21B082F8091D6079091D70712
:104D10000E94B01C002311F40C94782FBE016F5F29
:104D20007F4FCE01C3960E9455200091D207CE013D
:104D3000C3960E945E22801718F48091D20704C0A7
:104D4000CE01C3960E945E228093D2078091D50740
:104D50008F5F8093D507A2CF0E9425220E943E211B
:104D60006093A3017093A4018093A5019093A60181
:104D70006093A7017093A8018093A9019093AA0161
:104D80006093AB017093AC018093AD019093AE0141
:104D900061E086E00E941E1961E089E00E941E1910
:104DA0000E9423249093100280930F0280910F029F
:104DB000909110020196A9F080910F02909110023B
:104DC000892B79F48091E80287FD0BC08091E8027D
:104DD0008F71853031F48091E9028C3011F40C949C
:104DE0007C2F0E94F3190091F7011091F801209196
:104DF000F9013091FA01DC01CB01801B910BA20B70
:104E0000B30B893C9105A105B10508F45CC70E946C
:104E1000F3196093F7017093F8018093F90190936F
:104E2000FA01C0909901D0909A01E0909B01F09016
:104E30009C010E94F31928EE33E040E050E00E940C
:104E40005433CA01B9016C0D7D1D8E1D9F1D2CE3CD
:104E500030E040E050E00E942A33CA01B9012CE35F
:104E600030E040E050E00E942A33F62ECA01B9013A
:104E700028E130E040E050E00E942A3380E091E0F9
:104E8000482F437009F090E08F5F492F50E0FA01FE
:104E9000E359FE4F2E173F0738F0A3E9BEEFA41BDE
:104EA000B50B2A0F3B1FEBCF81E0E82FF0E0EC576A
:104EB000FE4FE491992319F0823009F4EF5FF0E09E
:104EC0008F5F2E173F0718F02E1B3F0BEECFC090C1
:104ED0000501D0900601E62FF0E02196FFAFEEAF7E
:104EE0002197F0930601E09305010F2D10E0239622
:104EF0001FAF0EAF23971093F6010093F501E090DA
:104F00000D02F0900E0260910B0270910C026E0D7A
:104F10007F1D072E000C880B990B0E94A13420E006
:104F200030E048EC52E40E94F7336093F101709353
:104F3000F2018093F3019093F401B701FF0C880B09
:104F4000990B0E94A13420E030E048EC52E40E942A
:104F5000F7336093ED017093EE018093EF0190932E
:104F6000F0018091090290910A022090070230908E
:104F70000802280E391E3092EC012092EB0190932A
:104F8000EA018093E90117E1C116D10491F5219658
:104F9000EEACFFAC2197EF2861F5E5EEF1E0729100
:104FA000629152914291448355836683778301E0F5
:104FB000ED3CF007A1F71092ED011092EE01109276
:104FC000EF011092F001E9ECF1E0729162915291DF
:104FD0004291448355836683778311E0E13BF10777
:104FE000A1F71092F1011092F2011092F3011092C8
:104FF000F401E090ED01F090EE010091EF011091CD
:10500000F0012796ECAEFDAE0EAF1FAF2797E092F2
:10501000CD01F092CE010093CF011093D001E0902A
:10502000F101F090F2010091F3011091F4012B963F
:10503000ECAEFDAE0EAF1FAF2B97E092B101F09238
:10504000B2010093B3011093B401059724F41092B8
:10505000EA011092E901E090B001E092AF01E0EACC
:10506000F1E08491E3E5FDE2F490EFE3FDE2D4901A
:10507000DD20A1F081110E94C518ED2DF0E0EE0FAA
:10508000FF1FEA5DF24DA591B491EC91FE2231E053
:1050900020E009F430E0832F922F02C080E090E0FE
:1050A000282F21702093B001E1100EC0892B61F0F0
:1050B000809104018F5F853018F48093040104C04F
:1050C000FF24F394F092040180910401813009F0EF
:1050D0000BC3E090FB01F090FC010091FD011091E9
:1050E000FE012F96ECAEFDAE0EAF1FAF2F97E090F6
:1050F000FF01F090000200910102109102026396FC
:10510000ECAEFDAE0EAF1FAF63972396EEACFFACD7
:105110002397B701FF0C880B990B0E94A134699665
:105120006CAF7DAF8EAF9FAF6997E090AB01F09011
:10513000AC010091AD011091AE016D96ECAEFDAEEB
:105140000EAF1FAF6D97E090A701F090A8010091FE
:10515000A9011091AA01A196ECAEFDAE0EAF1FAF52
:10516000A197E090A301F090A4010091A5011091F6
:10517000A601EBAEFCAE0DAF1EAFE090E901F090E2
:10518000EA016596FFAEEEAE6597B701FF0C880B9E
:10519000990B0E94A1344B015C01B101032C000C5E
:1051A000880B990B0E94A1342B013C01A5019401AD
:1051B0000E9485336B017C010E94E61C0E94CB2279
:1051C00020E440E460E080E40E94132320E240E811
:1051D00060E280E00E9413230E94F319DC01CB01FE
:1051E00063960CAD1DAD2EAD3FAD6397801B910B4B
:1051F000A20BB30B813C944DA140B10588F181E72E
:105200009BE00E94511D0E94F31963962CAD3DADA9
:105210004EAD5FAD6397621B730B840B950B28EE4D
:1052200033E040E050E00E945433DA01C9012436F3
:10523000310584F44AE0BE016F5F7F4F0E948F30DA
:105240006BE271E0CE0101960E94D535AE014F5F51
:105250005F4F02C04BE15BE060E082E40E94271DEB
:105260000E94F319DC01CB012F960CAD1DAD2EADC4
:105270003FAD2F97801B910BA20BB30B81329F4B3D
:10528000A240B10588F181E79BE00E94511D0E9478
:10529000F3192F962CAD3DAD4EAD5FAD2F97621B30
:1052A000730B840B950B20E63AEE40E050E00E9431
:1052B0005433DA01C9012436310584F44AE0BE01D1
:1052C0006F5F7F4F0E948F3066E371E0CE010196E1
:1052D0000E94D535AE014F5F5F4F02C042E15BE0F7
:1052E00062E283E40E94271D8FE99CE00E94511D29
:1052F0000CE020E142EF5AE062E283E30E94C42323
:10530000A5019401C301B2010E94513518163CF465
:105310004FEE5AE062E283E20E94FB1C0AC04CEEB0
:105320005AE062E283E20E94FB1CF7FAF094F7F87D
:10533000F09483EC92E00E94511D20E030E04AE7B7
:1053400054E4C301B2010E94513518169CF420E0C8
:1053500030E04AE754E4C301B2010E94F7338E0102
:105360000F5F1F4F21E042E00E946F3063E471E065
:10537000C8010BC04AE0BE016F5F7F4FC1010E94B0
:105380008F3064E471E0CE0101960E94D5350CE0C7
:1053900020E143EA52E060E081E30E94C423AE01D1
:1053A0004F5F5F4F69E083E00E94271D20E030E0FF
:1053B0004AE754E4C501B4010E94513518169CF423
:1053C00020E030E04AE754E4C501B4010E94F7331D
:1053D0008E010F5F1F4F21E042E00E946F3063E4B7
:1053E00071E0C8010EC04AE0BE016F5F7F4F659655
:1053F0008EAD9FAD65970E948F3064E471E0CE0161
:1054000001960E94D53520E030E648EB55E4C50111
:10541000B4010E94F73320E030E040EA50E40E94FB
:10542000563520E030E040E05FE30E9485330E9483
:105430006934772785E0660F771F8A95E1F7AB011E
:105440004D5F5D4F0CE020E160E083E70E94C423E4
:10545000AE014F5F5F4F69E087E40E94271D20E0A7
:1054600030E04AE754ECC701B6010E94F23387FDF1
:105470000AC020E030E04AE754E4C701B6010E94C8
:10548000513518169CF420E030E04AE754E4C70197
:10549000B6010E94F7338E010F5F1F4F21E042E0FB
:1054A0000E946F3063E471E0C80110C0C701B6010B
:1054B0000E946934DC01CB014AE0BE016F5F7F4F7F
:1054C0000E948F3064E471E0CE0101960E94D535D0
:1054D000AE014F5F5F4F6AE283E00E94271D8E019D
:1054E0000F5F1F4F21E040E06BAD7CAD8DAD9EADF9
:1054F0000E946F3066E471E0C8010E94D53520E05B
:1055000030E040E252E46BAD7CAD8DAD9EAD0E94CB
:10551000513518165CF120E030E040E751EC6BADFE
:105520007CAD8DAD9EAD0E94F23387FD21C020E0A1
:1055300030E040E751E46BAD7CAD8DAD9EAD0E9497
:10554000863320E030E04CE552E40E94F73320E05F
:1055500030E040EA50E40E94563520E030E040E080
:105560005FE30E9485330E94693403C065E001C097
:1055700060E030E1639FA00111244D545E4F00E1D3
:1055800028E068E288E70E94C423AE014F5F5F4FC6
:105590006AE286E40E94271D81E79BE00E94511D7C
:1055A0008E010F5F1F4F21E040E02B966CAD7DAD6B
:1055B0008EAD9FAD2B970E946F3068E471E0C801FB
:1055C0000E94D535A8016AE186E00E94271D21E0EE
:1055D00040E027966CAD7DAD8EAD9FAD27970E94C4
:1055E0006F3068E471E0C8010E94D535A8016AE116
:1055F00087E40E94271DA1966CAD7DAD8EAD9FAD59
:10560000A1970E946934DC01CB014AE0B8010E94F5
:105610008F3066E471E0C8010E94D5354FEA51E051
:105620006AE384E40E94FB1CA8016AE382E50E940D
:10563000271D6D966CAD7DAD8EAD9FAD6D970E94B3
:105640006934DC01CB014AE0B8010E948F3066E486
:1056500071E0C8010E94D5354BEA51E06AE381E66A
:105660000E94FB1CA8016AE38FE60E94271D45EA01
:1056700051E06AE385E00E94FB1C4AE0B8012196F4
:105680008EAD9FAD21970E948F3020E030E040E248
:1056900051E469966CAD7DAD8EAD9FAD69970E946A
:1056A000F23387FF04C062E571E0C80104C06DE811
:1056B00071E0CE0101960E94D5354AE0BE016D5CD5
:1056C0007F4F23968EAD9FAD23970E948F30BE01F2
:1056D0006D5C7F4FCE0101960E94D535AE014F5FC4
:1056E0005F4F6AE38CE17BC2823069F5B101330C14
:1056F000880B990B0E94A134AB01BC012B96ECAC3A
:10570000FDAC0EAD1FAD2B9725E531E08AE591E0AC
:105710000E945F1F6091050170910601072E000C29
:10572000880B990B0E94A1345B016C01E090AB01E6
:10573000F090AC010091AD011091AE01EBAEFCAE6A
:105740000DAF1EAF33C0833009F075C06091E90121
:105750007091EA01072E000C880B990B0E94A1346E
:10576000AB01BC012796ECACFDAC0EAD1FAD27978D
:1057700028E631E08CE691E00E945F1F6091050110
:1057800070910601072E000C880B990B0E94A13422
:105790005B016C012091AB013091AC014091AD01F6
:1057A0005091AE012BAF3CAF4DAF5EAF2091A70142
:1057B0003091A8014091A9015091AA014090A30104
:1057C0005090A4016090A5017090A6016091F50130
:1057D0007091F601072E000C880B990BA2962FAF43
:1057E000A297A3963FAFA397A4964FAFA497A59671
:1057F0005FAFA5970E94A1349F938F937F936F9380
:10580000EBACFCAC0DAD1EADA2962FADA297A3964E
:105810003FADA397A4964FADA497A5965FADA5976E
:10582000C301B2010E948D1E0E94891D0F900F902E
:105830000F900F90D8C1843009F0D5C10E94CB22BF
:105840008FE99CE00E94511D47E95CE060E088E23E
:105850000E94FB1C81E79BE00E94511D4BE65BE030
:1058600060E182E00E94FB1C41E65BE067E182E0D0
:105870000E94FB1C46E55BE06EE182E00E94FB1C9F
:105880004BE45BE065E282E00E94FB1C40E45BE0ED
:105890006CE282E00E94FB1C45E35BE063E382E094
:1058A0000E94FB1C4AE25BE06AE382E00E94FB1C70
:1058B0008BE697E5A8E6B0E08BAB9CABADABBEAB9F
:1058C00081E79BE00E94511D45E25BE069E088E3CF
:1058D0000E94FB1C6091B1017091B2018091B301F3
:1058E0009091B4018E010F5F1F4F21E040E00E94B4
:1058F0006F30BE016D5C7F4FC8010E94D53581E7D6
:105900009BE00E94511DA80160E184E30E94271DD5
:105910006091B5017091B6018091B7019091B80185
:1059200021E040E00E946F30BE016D5C7F4FC801F6
:105930000E94D53581E79BE00E94511DA80167E1D7
:1059400084E30E94271D6091B9017091BA01809192
:10595000BB019091BC0121E040E00E946F30BE018C
:105960006D5C7F4FC8010E94D53581E79BE00E94A6
:10597000511DA8016EE184E30E94271D6091BD01C5
:105980007091BE018091BF019091C00121E040E083
:105990000E946F30BE016D5C7F4FC8010E94D535FB
:1059A00081E79BE00E94511DA80165E284E30E940B
:1059B000271D6091C1017091C2018091C301909136
:1059C000C40121E040E00E946F30BE016D5C7F4F5A
:1059D000C8010E94D53581E79BE00E94511DA801B6
:1059E0006CE284E30E94271D6091C5017091C6019D
:1059F0008091C7019091C80121E040E00E946F3082
:105A0000BE016D5C7F4FC8010E94D53581E79BE0E8
:105A10000E94511DA80163E384E30E94271D609149
:105A2000C9017091CA018091CB019091CC0121E014
:105A300040E00E946F30BE016D5C7F4FC8010E9444
:105A4000D53581E79BE00E94511DA8016AE384E3FC
:105A50000E94271D81E79BE00E94511D42E25BE00E
:105A600069E08AE50E94FB1C6091CD017091CE0136
:105A70008091CF019091D00121E040E00E946F30F1
:105A8000BE016D5C7F4FC8010E94D53581E79BE068
:105A90000E94511DA80160E183E50E94271D6091CD
:105AA000D1017091D2018091D3019091D40121E074
:105AB00040E00E946F30BE016D5C7F4FC8010E94C4
:105AC000D53581E79BE00E94511DA80167E183E580
:105AD0000E94271D6091D5017091D6018091D70158
